:100000000C9462000C948A000C948A000C948A0070
:100010000C948A000C948A000C948A000C948A0038
:100020000C948A000C948A000C948A000C948A0028
:100030000C948A000C948A000C948A000C948A0018
:100040000C94C0050C948A000C9430070C947E0725
:100050000C948A000C948A000C948A000C948A00F8
:100060000C948A000C948A000000000024002700F1
:100070002A0000000000250028002B0000000000DE
:1000800023002600290004040404040404040202DA
:100090000202020203030303030301020408102007
:1000A0004080010204081020010204081020000012
:1000B0000007000201000003040600000000000029
:1000C0000000EA0811241FBECFEFD8E0DEBFCDBF8D
:1000D00011E0A0E0B1E0E4EFF3E102C005900D9281
:1000E000A033B107D9F711E0A0E3B1E001C01D9240
:1000F000AA3EB107E1F710E0C4ECD0E004C02297BB
:10010000FE010E94F409C23CD107C9F70E944009D0
:100110000C94F8090C94000080910801609134015E
:100120000E94DB0680910A01609135010E94DB0686
:1001300080910C01609136010E94DB0680910E01D6
:10014000609134010E94DB068091100160913501BD
:100150000E94DB0680911201609136010E94DB064D
:1001600080911401609134010E94DB068091160198
:10017000609135010E94DB06809118016091360183
:100180000E94DB0680911A01609134010E94DB0617
:1001900080911C01609135010E94DB0680911E0157
:1001A000609136010E94DB060895809108016091FC
:1001B00034010E94DB0680910A01609135010E94A2
:1001C000DB0680910C01609136010E94DB06809174
:1001D0000E0161E00E94DB068091100161E00E9447
:1001E000DB068091120161E00E94DB068091140120
:1001F00061E00E94DB068091160161E00E94DB064F
:100200008091180161E00E94DB0680911A0161E093
:100210000E94DB0680911C0161E00E94DB06809158
:100220001E0161E00E94DB066AE570E080E090E07C
:100230000E9408068091080161E00E94DB0680911F
:100240000A0161E00E94DB0680910C0161E00E94DE
:10025000DB0680910E01609134010E94DB068091E3
:100260001001609135010E94DB06809112016091BE
:1002700036010E94DB068091140161E00E94DB06DA
:100280008091160161E00E94DB068091180161E017
:100290000E94DB0680911A0161E00E94DB068091DA
:1002A0001C0161E00E94DB0680911E0161E00E945A
:1002B000DB066AE570E080E090E00E94080680912D
:1002C000080161E00E94DB0680910A0161E00E9462
:1002D000DB0680910C0161E00E94DB0680910E013B
:1002E00061E00E94DB068091100161E00E94DB0664
:1002F0008091120161E00E94DB068091140161E0AF
:100300000E94DB068091160161E00E94DB0680916D
:10031000180161E00E94DB0680911A0160913401AE
:100320000E94DB0680911C01609135010E94DB0672
:1003300080911E01609136010E94DB066AE570E043
:1003400080E090E00E9408068091080161E00E9430
:10035000DB0680910A0161E00E94DB0680910C01BE
:1003600061E00E94DB0680910E0161E00E94DB06E5
:100370008091100161E00E94DB068091120161E032
:100380000E94DB0680911401609134010E94DB061B
:1003900080911601609135010E94DB068091180161
:1003A000609136010E94DB0680911A0161E00E9493
:1003B000DB0680911C0161E00E94DB0680911E013A
:1003C00061E00E94DB066AE570E080E090E00E9458
:1003D00008060895AF92BF92CF92DF92EF92FF92FC
:1003E0000F931F93EE24FF2487012FE0A22EB12C40
:1003F000C12CD12C80910801609134010E94DB0650
:1004000080910A01609135010E94DB0680910C0108
:10041000609136010E94DB0680910E0160913401EB
:100420000E94DB0680911001609135010E94DB067D
:1004300080911201609136010E94DB0680911401C7
:10044000609134010E94DB068091160160913501B4
:100450000E94DB0680911801609136010E94DB0644
:1004600080911A01609134010E94DB0680911C0189
:10047000609135010E94DB0680911E01609136017A
:100480000E94DB06C801B7010E940806809108019E
:1004900061E00E94DB0680910A0161E00E94DB06B8
:1004A00080910C0161E00E94DB0680910E0161E009
:1004B0000E94DB068091100161E00E94DB068091C2
:1004C000120161E00E94DB068091140161E00E944C
:1004D000DB068091160161E00E94DB068091180125
:1004E00061E00E94DB0680911A0161E00E94DB0658
:1004F00080911C0161E00E94DB0680911E0161E099
:100500000E94DB06C601B5016E197F09800B910BB5
:100510000E9408060894E11CF11C011D111D80E1D8
:10052000E816F1040105110509F064CF9FE0E92EFA
:10053000F12C012D112D8FE0A82EB12CC12CD12C26
:1005400080910801609134010E94DB0680910A01CC
:10055000609135010E94DB0680910C0160913601AB
:100560000E94DB0680910E01609134010E94DB063F
:1005700080911001609135010E94DB06809112018B
:10058000609136010E94DB06809114016091340174
:100590000E94DB0680911601609135010E94DB0606
:1005A00080911801609136010E94DB0680911A014A
:1005B000609134010E94DB0680911C01609135013D
:1005C0000E94DB0680911E01609136010E94DB06CD
:1005D000C801B7010E9408068091080161E00E94ED
:1005E000DB0680910A0161E00E94DB0680910C012C
:1005F00061E00E94DB0680910E0161E00E94DB0653
:100600008091100161E00E94DB068091120161E09F
:100610000E94DB068091140161E00E94DB0680915C
:10062000160161E00E94DB068091180161E00E94E2
:10063000DB0680911A0161E00E94DB0680911C01BB
:1006400061E00E94DB0680911E0161E00E94DB06F2
:10065000C601B5016E197F09800B910B0E94080637
:100660000894E108F108010911098FEFE8168FEFEE
:10067000F8068FEF08078FEF180709F061CF1F9179
:100680000F91FF90EF90DF90CF90BF90AF900895C3
:1006900080910801609134010E94DB0680910A017B
:1006A000609135010E94DB0680910C01609136015A
:1006B0000E94DB0680910E01609134010E94DB06EE
:1006C00080911001609135010E94DB06809112013A
:1006D000609136010E94DB06809114016091340123
:1006E0000E94DB0680911601609135010E94DB06B5
:1006F00080911801609136010E94DB0680911A01F9
:10070000609134010E94DB0680911C0160913501EB
:100710000E94DB0680911E01609136010E94DB067B
:1007200064E670E080E090E00E9408068091080195
:1007300061E00E94DB0680910A0161E00E94DB0615
:1007400080910C0161E00E94DB0680910E0161E066
:100750000E94DB068091100161E00E94DB0680911F
:10076000120161E00E94DB068091140161E00E94A9
:10077000DB068091160161E00E94DB068091180182
:1007800061E00E94DB0680911A0161E00E94DB06B5
:1007900080911C0161E00E94DB0680911E0161E0F6
:1007A0000E94DB0664E670E080E090E00E940806AC
:1007B00008951F93CF93DF93182F88EC91E060E0AA
:1007C00071E00E94CD0988EC91E0612F0E949909A7
:1007D000113431F0183421F01F3411F0173519F4A9
:1007E00081E090E00AC0123431F0193421F0103564
:1007F00011F0183539F482E090E090933301809342
:10080000320138C0133431F01A3421F0113511F0AF
:10081000193519F483E090E0F0CF143431F01B3433
:1008200021F0123511F01A3519F484E090E0E5CF8B
:10083000153431F01C3421F0133511F0113219F454
:1008400085E090E0DACF163431F01D3421F0143514
:1008500011F0133219F486E090E0CFCF173431F065
:100860001E3421F0153511F0143221F410923301A9
:1008700010923201812F8154873028F41092310177
:10088000109230011EC0812F8854873018F481E007
:1008900090E013C0812F8F54873018F482E090E0ED
:1008A0000CC0812F8755843030F0113221F0133283
:1008B00011F0143231F483E090E090933101809391
:1008C0003001113631F0183621F01F3611F017378C
:1008D00031F41092340181E0809335010DC012365D
:1008E00031F0193621F0103711F0183741F481E05A
:1008F00080933401109235018093360142C0133643
:1009000031F01A3621F0113711F0193721F481E056
:100910008093340119C0143631F01B3621F01237A0
:1009200011F01A3731F4109234011092350181E040
:10093000E3CF153631F01C3621F0133711F01532A4
:1009400031F41092340181E08093350118C01636DD
:1009500031F01D3621F0143711F0163221F481E008
:10096000809334010AC0173631F01E3621F0153756
:1009700011F0103431F410923401109235011092BC
:100980003601812F8156873018F40E948C002EC0CA
:10099000812F8856873048F4C0E0D0E00E94480399
:1009A0002196CF30D105D1F721C0812F8F568730C6
:1009B00058F40E94EA010E94EA010E94EA010E94A2
:1009C000EA010E94EA0112C0812F8757843030F07B
:1009D000153221F0163211F0103441F4C0E0D0E0AD
:1009E0000E94D5002196CA30D105D1F7183739F4C5
:1009F0001092340181E08093350180933601DF91BC
:100A0000CF911F91089588EC91E00E94400818163C
:100A1000190634F488EC91E00E9471080E94D90311
:100A2000809132019091330183309105F1F084304F
:100A3000910534F48130910561F0029784F42BC064
:100A400085309105F1F0853091059CF0069719F5F8
:100A50001EC01092340181E0809335010FC081E007
:100A6000809334011092350109C081E080933401F4
:100A70000BC0109234011092350181E08093360151
:100A800010C01092340181E08093350108C081E0EC
:100A90008093340102C010923401109235011092FB
:100AA000360180913001909131018130910549F0FA
:100AB000823091057CF08230910531F0039751F43A
:100AC00006C00E94480308950E94EA0108950E940A
:100AD000D50008950E948C00089588EC91E040E8CC
:100AE00055E260E070E00E94B9078091080161E082
:100AF0000E949C0680910A0161E00E949C06809100
:100B00000C0161E00E949C0680910E0161E00E9450
:100B10009C068091100161E00E949C068091120168
:100B200061E00E949C068091140161E00E949C0695
:100B30008091160161E00E949C068091180161E09D
:100B40000E949C0680911A0161E00E949C0680919F
:100B50001C0161E00E949C0680911E0161E00E94E0
:100B60009C061092340110923501109236011092B9
:100B70003101109230011092330110923201089528
:100B80001F920F920FB60F9211242F933F938F93C2
:100B90009F93AF93BF9380913B0190913C01A091B3
:100BA0003D01B0913E0130913F010196A11DB11D63
:100BB000232F2D5F2D3720F02D570196A11DB11D3C
:100BC00020933F0180933B0190933C01A0933D0112
:100BD000B0933E018091370190913801A091390185
:100BE000B0913A010196A11DB11D809337019093F8
:100BF0003801A0933901B0933A01BF91AF919F9111
:100C00008F913F912F910F900FBE0F901F901895CD
:100C10009B01AC017FB7F894809137019091380126
:100C2000A0913901B0913A0166B5A89B05C06F3F0C
:100C300019F00196A11DB11D7FBFBA2FA92F982FC2
:100C40008827860F911DA11DB11D62E0880F991F95
:100C5000AA1FBB1F6A95D1F7BC012DC0FFB7F8943E
:100C60008091370190913801A0913901B0913A01FA
:100C7000E6B5A89B05C0EF3F19F00196A11DB11D77
:100C8000FFBFBA2FA92F982F88278E0F911DA11D66
:100C9000B11DE2E0880F991FAA1FBB1FEA95D1F78B
:100CA000861B970B885E9340C8F22150304040402D
:100CB000504068517C4F211531054105510571F6B1
:100CC0000895789484B5826084BD84B5816084BDC4
:100CD00085B5826085BD85B5816085BDEEE6F0E0B5
:100CE000808181608083E1E8F0E010828081826011
:100CF0008083808181608083E0E8F0E08081816092
:100D00008083E1EBF0E0808184608083E0EBF0E0C1
:100D1000808181608083EAE7F0E080818460808365
:100D2000808182608083808181608083808180680F
:100D300080831092C1000895CF93DF93482F50E035
:100D4000CA0186569F4FFC0134914A575F4FFA0102
:100D50008491882369F190E0880F991FFC01E8597C
:100D6000FF4FA591B491FC01EE58FF4FC591D4916E
:100D7000662351F42FB7F8948C91932F9095892383
:100D80008C93888189230BC0623061F42FB7F8946B
:100D90008C91932F909589238C938881832B8883C2
:100DA0002FBF06C09FB7F8948C91832B8C939FBF65
:100DB000DF91CF910895482F50E0CA0182559F4F8F
:100DC000FC012491CA0186569F4FFC0194914A5719
:100DD0005F4FFA013491332309F440C0222351F1CB
:100DE000233071F0243028F42130A1F0223011F5A5
:100DF00014C02630B1F02730C1F02430D9F404C03B
:100E0000809180008F7703C0809180008F7D8093D8
:100E1000800010C084B58F7702C084B58F7D84BDFB
:100E200009C08091B0008F7703C08091B0008F7DA2
:100E30008093B000E32FF0E0EE0FFF1FEE58FF4F5E
:100E4000A591B4912FB7F894662321F48C919095D5
:100E5000892302C08C91892B8C932FBF089508950C
:100E60001F920F920FB60F9211242F933F934F931F
:100E70008F939F93EF93FF938091C00082FD1DC0DD
:100E80004091C60020918001309181012F5F3F4F3A
:100E90002F73307080918201909183012817390758
:100EA00071F0E0918001F0918101E05CFE4F4083A0
:100EB000309381012093800102C08091C600FF9190
:100EC000EF919F918F914F913F912F910F900FBE76
:100ED0000F901F901895E091D401F091D501E05C3E
:100EE000FF4F8191919120813181821B930B8F73F0
:100EF0009070892B11F00E942F0708951F920F9276
:100F00000FB60F9211242F933F938F939F93EF93DC
:100F1000FF932091C4013091C5018091C601909149
:100F2000C7012817390731F48091C1008F7D809364
:100F3000C10014C0E091C601F091C701EC57FE4F0B
:100F400020818091C6019091C70101968F739070A6
:100F50009093C7018093C6012093C600FF91EF9143
:100F60009F918F913F912F910F900FBE0F901F90E7
:100F70001895AF92BF92DF92EF92FF920F931F935B
:100F8000CF93DF93EC017A018B01DD24403081EEB9
:100F9000580780E0680780E0780711F0DD24D394DB
:100FA00091E0A92EB12CEC89FD89DD2069F0C50105
:100FB00008A002C0880F991F0A94E2F7808360E0BE
:100FC00079E08DE390E005C0108260E874E88EE17E
:100FD00090E0A80197010E94D00921503040404084
:100FE0005040569547953795279580E12030380732
:100FF00020F0DD2011F0DD24D6CFE889F989308397
:10100000EA89FB89208319A2EE89FF89408121E0CA
:1010100030E0C9010C8C02C0880F991F0A94E2F7D6
:10102000482B4083EE89FF894081C9010D8C02C0A5
:10103000880F991F0A94E2F7482B4083EE89FF89B5
:101040004081C9010E8C02C0880F991F0A94E2F7F3
:10105000482B4083EE89FF8980810F8C02C0220FCC
:10106000331F0A94E2F7209528232083DF91CF9144
:101070001F910F91FF90EF90DF90BF90AF90089578
:10108000DC011C96ED91FC911D97E05CFF4F2191D6
:10109000319180819181281B390B2F733070C901E8
:1010A0000895DC011C96ED91FC911D97E05CFF4FCB
:1010B00020813181E054F040DF01AE5BBF4F8D9164
:1010C0009C9111972817390719F42FEF3FEF07C0AC
:1010D0008D919C91E80FF91F8081282F30E0C90184
:1010E0000895DC011C96ED91FC911D97E05CFF4F8B
:1010F00020813181E054F040DF01AE5BBF4F8D9124
:101100009C9111972817390719F42FEF3FEF10C062
:101110008D919C911197E80FF91F20818D919C91E1
:10112000119701968F73907011969C938E9330E077
:10113000C9010895DC0191968C919197882339F02B
:101140005496ED91FC915597808186FFF9CF919649
:101150001C920895CF93DF93EC01EE85FF85E05C50
:10116000FF4F20813181E054F0402F5F3F4F2F73BC
:101170003070DF01AE5BBF4F8D919C9111972817A6
:101180003907D1F3E05CFF4F80819181E054F0405A
:10119000E80FF91F6083EE85FF85E05CFF4F318328
:1011A0002083EE89FF89208181E090E00F8C02C0CE
:1011B000880F991F0A94E2F7282B208381E089A3E6
:1011C000EC89FD8980818064808381E090E0DF91FB
:1011D000CF9108951092CB011092CA0188EE93E04E
:1011E000A0E0B0E08093CC019093CD01A093CE011C
:1011F000B093CF0184E291E09093C9018093C8013C
:1012000080E491E09093D5018093D40184E891E04B
:101210009093D7018093D60185EC90E09093D9010B
:101220008093D80184EC90E09093DB018093DA0105
:1012300080EC90E09093DD018093DC0181EC90E004
:101240009093DF018093DE0182EC90E09093E101C6
:101250008093E00186EC90E09093E3018093E201BB
:1012600084E08093E40183E08093E50187E080934C
:10127000E60185E08093E70181E08093E80108952D
:10128000CF93DF930E9461060E946D05CBE6D7E005
:101290000E9403052097E1F30E946B07F9CFCF92DC
:1012A000DF92EF92FF920F931F93CF93DF937C0116
:1012B0006B018A01C0E0D0E00FC0D6016D916D01D5
:1012C000D701ED91FC910190F081E02DC7010995C6
:1012D000C80FD91F015010400115110571F7CE013B
:1012E000DF91CF911F910F91FF90EF90DF90CF9002
:1012F0000895EF92FF920F931F938C01DC01ED9103
:10130000FC910190F081E02D6DE009957C01D80100
:10131000ED91FC910190F081E02DC8016AE0099502
:101320009C012E0D3F1DC9011F910F91FF90EF9061
:101330000895EF92FF920F931F937C01DC01ED91D2
:10134000FC910190F081E02D09958C01C7010E946C
:101350007909080F191FC8011F910F91FF90EF9095
:101360000895CF93DF93EC016115710519F420E026
:1013700030E00FC0DB010D900020E9F71197A61BAC
:10138000B70BE881F9810280F381E02DAD01099569
:101390009C01C901DF91CF9108950E94B109089580
:1013A000A1E21A2EAA1BBB1BFD010DC0AA1FBB1F69
:1013B000EE1FFF1FA217B307E407F50720F0A21BDB
:1013C000B30BE40BF50B661F771F881F991F1A9448
:1013D00069F760957095809590959B01AC01BD0172
:1013E000CF010895EE0FFF1F0590F491E02D0994B1
:0413F000F894FFCF9F
:1013F40063686172203A20000700090008001200A7
:1014040013000A000C000D000B000300040002008E
:1014140000000000AA084F094008710851089A0802
:00000001FF
